:10000000C0390220752D040085600400856004005D
:10001000856004008560040085600400856004003C
:10002000856004008560040085600400856004002C
:0C003000856004008560040041040200AB
:100040002D2D2D2D2D424547494E204345525449D3
:100050004649434154452D2D2D2D2D002D2D2D2D5F
:100060002D454E4420434552544946494341544549
:100070002D2D2D2D2D000A4365727469666963610B
:10008000746520697320756E696E697469616C6945
:10009000736564210A002573636572742E2076658A
:1000A0007273696F6E20202020203A2025640A0098
:1000B000257373657269616C206E756D626572205F
:1000C000202020203A20000A257369737375657219
:1000D000206E616D65202020202020203A20000A1B
:1000E00025737375626A656374206E616D65202087
:1000F000202020203A20000A2573697373756564F7
:1001000020206F6E20202020202020203A20253023
:1001100034642D253032642D253032642025303270
:10012000643A253032643A25303264000A2573651A
:10013000787069726573206F6E2020202020202047
:10014000203A20253034642D253032642D2530327C
:100150006420253032643A253032643A25303264E6
:10016000000A25737369676E6564207573696E672D
:100170002020202020203A20000A2573252D313808
:10018000733A2025642062697473000A25736261E2
:1001900073696320636F6E73747261696E74732028
:1001A0003A2043413D257300747275650066616CA9
:1001B0007365002C206D61785F706174686C656E8A
:1001C0003D2564000A25737375626A656374206156
:1001D0006C74206E616D6520203A000A257363659A
:1001E00072742E2074797065202020202020202019
:1001F0003A20000A25736B65792075736167652065
:1002000020202020202020203A20000A2573657815
:1002100074206B657920757361676520202020202C
:100220003A20000A257363657274696669636174B4
:100230006520706F6C6963696573203A20000A005D
:10024000257325730A002573556E6B6E6F776E20CC
:10025000726561736F6E2028746869732073686FAC
:10026000756C64206E6F742068617070656E290A09
:10027000002B06010505070804000A25732020202D
:10028000203C756E737570706F727465643E000A01
:100290002573202020203C6D616C666F726D656453
:1002A0003E000A2573202020206F746865724E611D
:1002B0006D65203A000A2573202020202020202070
:1002C0006861726477617265206D6F64756C65201A
:1002D0006E616D65203A000A2573202020202020C1
:1002E000202020202020686172647761726520746C
:1002F000797065202020202020202020203A200016
:100300000A25732020202020202020202020206863
:10031000617264776172652073657269616C206EC9
:10032000756D626572203A20000A25732020202016
:10033000644E534E616D65203A200000257353537F
:100340004C20436C69656E74002C20002573535358
:100350004C20536572766572002573456D61696C3A
:100360000025734F626A656374205369676E696E16
:100370006700257352657365727665640025735353
:10038000534C204341002573456D61696C20434106
:100390000025734F626A656374205369676E696EE6
:1003A000672043410025734469676974616C205379
:1003B00069676E61747572650025734E6F6E2052A9
:1003C00065707564696174696F6E0025734B65793A
:1003D00020456E6369706865726D656E7400257383
:1003E0004461746120456E6369706865726D656E05
:1003F000740025734B65792041677265656D656E84
:10040000740025734B6579204365727420536967C6
:100410006E00257343524C205369676E0025734567
:100420006E636970686572204F6E6C790025734445
:1004300065636970686572204F6E6C79003F3F3F5D
:1004400000257325730054686520636572746966BE
:1004500069636174652076616C6964697479206888
:100460006173206578706972656400546865206303
:10047000657274696669636174652068617320627E
:1004800065656E207265766F6B65642028697320E0
:100490006F6E20612043524C2900546865206365CB
:1004A00072746966696361746520436F6D6D6F6E08
:1004B000204E616D652028434E2920646F657320AE
:1004C0006E6F74206D61746368207769746820743E
:1004D000686520657870656374656420434E0054D8
:1004E0006865206365727469666963617465206913
:1004F00073206E6F7420636F72726563746C792001
:100500007369676E6564206279207468652074720F
:100510007573746564204341005468652043524CF0
:10052000206973206E6F7420636F72726563746CE0
:1005300079207369676E656420627920746865202C
:100540007472757374656420434100546865204378
:10055000524C206973206578706972656400436548
:1005600072746966696361746520776173206D696F
:100570007373696E67004365727469666963617459
:100580006520766572696669636174696F6E20774C
:10059000617320736B6970706564004F7468657275
:1005A00020726561736F6E202863616E2062652022
:1005B0007573656420627920766572696679206357
:1005C000616C6C6261636B290054686520636572BD
:1005D00074696669636174652076616C69646974C5
:1005E000792073746172747320696E207468652059
:1005F000667574757265005468652043524C2069B5
:10060000732066726F6D20746865206675747572EC
:100610006500557361676520646F6573206E6F7444
:10062000206D6174636820746865206B657955730B
:1006300061676520657874656E73696F6E005573C8
:1006400061676520646F6573206E6F74206D6174DF
:1006500063682074686520657874656E6465644BB2
:100660006579557361676520657874656E73696F28
:100670006E00557361676520646F6573206E6F74DB
:10068000206D6174636820746865206E73436572C1
:10069000745479706520657874656E73696F6E0047
:1006A0005468652063657274696669636174652066
:1006B0006973207369676E65642077697468206167
:1006C0006E20756E61636365707461626C6520682D
:1006D0006173682E00546865206365727469666989
:1006E00063617465206973207369676E6564207740
:1006F00069746820616E20756E61636365707461F2
:10070000626C6520504B20616C6720286567205221
:100710005341207673204543445341292E005468A9
:1007200065206365727469666963617465206973C5
:10073000207369676E6564207769746820616E2034
:10074000756E61636365707461626C65206B657959
:1007500020286567206261642063757276652C20AD
:1007600052534120746F6F2073686F7274292E008A
:100770005468652043524C206973207369676E6525
:1007800064207769746820616E20756E61636365AB
:10079000707461626C6520686173682E00546865CE
:1007A0002043524C206973207369676E656420771B
:1007B00069746820616E20756E6163636570746131
:1007C000626C6520504B20616C6720286567205261
:1007D0005341207673204543445341292E005468E9
:1007E000652043524C206973207369676E656420ED
:1007F0007769746820616E20756E616363657074DB
:1008000061626C65206B6579202865672062616490
:100810002063757276652C2052534120746F6F20CF
:1008200073686F7274292E005504030025642E2509
:1008300064002E2564005504030069642D61742D45
:10084000636F6D6D6F6E4E616D6500436F6D6D6FA3
:100850006E204E616D6500434E00550406006964CC
:100860002D61742D636F756E7472794E616D6500C4
:10087000436F756E74727900430055040700696414
:100880002D61742D6C6F63616C697479004C6F63BA
:10089000616C697479004C005504080069642D612D
:1008A000742D7374617465005374617465005354DE
:1008B0000055040A0069642D61742D6F7267616EC2
:1008C000697A6174696F6E4E616D65004F72676120
:1008D0006E697A6174696F6E004F0055040B006990
:1008E000642D61742D6F7267616E697A6174696FCE
:1008F0006E616C556E69744E616D65004F72672054
:10090000556E6974004F55002A864886F70D010917
:100910000100656D61696C416464726573730045C3
:100920002D6D61696C206164647265737300550498
:10093000050069642D61742D73657269616C4E7573
:100940006D6265720053657269616C206E756D62CF
:1009500065720073657269616C4E756D62657200D7
:100960005504100069642D61742D706F7374616C8F
:100970004164647265737300506F7374616C2061BD
:1009800064647265737300706F7374616C41646446
:1009900072657373005504110069642D61742D70C4
:1009A0006F7374616C436F646500506F7374616C36
:1009B00020636F646500706F7374616C436F64656E
:1009C000005504040069642D61742D7375724E61C5
:1009D0006D65005375726E616D6500534E00550470
:1009E0002A0069642D61742D676976656E4E616DAC
:1009F0006500476976656E206E616D6500474E0043
:100A000055042B0069642D61742D696E69746961E8
:100A10006C7300496E697469616C7300696E697406
:100A200069616C730055042C0069642D61742D6735
:100A3000656E65726174696F6E5175616C69666926
:100A400065720047656E65726174696F6E207175BD
:100A5000616C69666965720067656E65726174696B
:100A60006F6E5175616C69666965720055040C00A2
:100A700069642D61742D7469746C65005469746CBB
:100A800065007469746C650055042E0069642D61FD
:100A9000742D646E5175616C696669657200446994
:100AA0007374696E67756973686564204E616D65FE
:100AB000207175616C696669657200646E5175615B
:100AC0006C6966696572005504410069642D617442
:100AD0002D70736575646F6E796D00507365756404
:100AE0006F6E796D0070736575646F6E796D000956
:100AF00092268993F22C6401190069642D646F6D4C
:100B000061696E436F6D706F6E656E7400446F6DDA
:100B100061696E20636F6D706F6E656E7400444323
:100B20000055042D0069642D61742D756E69717511
:100B3000654964656E74696669657200556E6971B0
:100B40007565204964656E74696669657200756EC5
:100B5000697175654964656E746966696572005589
:100B60001D130069642D63652D6261736963436FB2
:100B70006E73747261696E7473004261736963208D
:100B8000436F6E73747261696E747300551D0F004C
:100B900069642D63652D6B65795573616765004BDD
:100BA000657920557361676500551D250069642DC1
:100BB00063652D6578744B6579557361676500458C
:100BC0007874656E646564204B6579205573616740
:100BD0006500551D110069642D63652D7375626A8A
:100BE000656374416C744E616D65005375626A652E
:100BF000637420416C74204E616D6500608648010D
:100C000086F84201010069642D6E6574736361703A
:100C1000652D6365727474797065004E65747363D5
:100C200061706520436572746966696361746520EB
:100C30005479706500551D200069642D63652D632E
:100C400065727469666963617465506F6C69636924
:100C500065730043657274696669636174652050E9
:100C60006F6C6963696573002B0601050507030155
:100C70000069642D6B702D736572766572417574B1
:100C80006800544C53205765622053657276657234
:100C90002041757468656E7469636174696F6E0074
:100CA0002B060105050703020069642D6B702D6397
:100CB0006C69656E744175746800544C53205765B7
:100CC0006220436C69656E742041757468656E744A
:100CD00069636174696F6E002B06010505070303E4
:100CE0000069642D6B702D636F64655369676E696D
:100CF0006E6700436F6465205369676E696E6700B5
:100D00002B060105050703040069642D6B702D6532
:100D10006D61696C50726F74656374696F6E0045C4
:100D20002D6D61696C2050726F74656374696F6EAC
:100D3000002B060105050703080069642D6B702D63
:100D400074696D655374616D70696E670054696D87
:100D500065205374616D70696E67002B060105058F
:100D60000703090069642D6B702D4F43535053697D
:100D7000676E696E67004F435350205369676E6911
:100D80006E67002B0601040182E425010069642DD1
:100D90006B702D776973756E2D66616E2D64657647
:100DA0006963650057692D53554E20416C6C69612C
:100DB0006E6365204669656C642041726561204EF2
:100DC0006574776F726B202846414E2900616E79F9
:100DD000506F6C69637900416E7920506F6C696364
:100DE00079002A8648CE3D04010065636473612D55
:100DF000776974682D53484131004543445341207D
:100E0000776974682053484131002A8648CE3D04F2
:100E100003010065636473612D776974682D53481D
:100E2000413232340045434453412077697468208D
:100E3000534841323234002A8648CE3D0403020032
:100E400065636473612D776974682D534841323549
:100E50003600454344534120776974682053484124
:100E6000323536002A864886F70D0101010072737B
:100E700061456E6372797074696F6E005253410000
:100E80002A8648CE3D02010069642D656350756273
:100E90006C69634B65790047656E657269632045CF
:100EA00043206B6579002B8104010C0069642D657A
:100EB000634448004543206B657920666F72204586
:100EC000434448002A8648CE3D030107007365630A
:100ED000703235367231002B0E03020700646573E1
:100EE000434243004445532D434243002A864886EB
:100EF000F70D0307006465732D656465332D636228
:100F000063004445532D454445332D434243002B54
:100F10000E03021A0069642D736861310053484161
:100F20002D31006086480165030402040069642DC8
:100F3000736861323234005348412D3232340060DC
:100F400086480165030402010069642D73686132FB
:100F50003536005348412D323536002A864886F70B
:100F60000D020700686D61635348413100484D41EF
:100F7000432D5348412D31002A864886F70D02083B
:100F800000686D616353484132323400484D41433B
:100F90002D5348412D323234002A864886F70D02FF
:100FA0000900686D616353484132353600484D4150
:100FB000432D5348412D323536005465726D696EAC
:100FC0006174696E6720657865637574696F6E2EEC
:100FD0002E2E0A00464F5243454400444542554791
:100FE0004556540056454354424C00556E6B6E6F47
:100FF000776E004D53544B4552523A2053746163FF
:101000006B696E67204572726F72202852442F57A9
:1010100052206661696C6564292C20537461636B8E
:101020002050757368004D554E53544B4552523AFB
:1010300020556E737461636B696E67204572726FC1
:1010400072202852442F5752206661696C656429CA
:101050002C20537461636B20506F700044414343F4
:1010600056494F4C3A204461746120416363657373
:10107000732056696F6C6174696F6E202852442F1B
:101080005752206661696C656429004941434356A3
:10109000494F4C3A20496E737472756374696F6E70
:1010A000204163636573732056696F6C6174696F67
:1010B0006E0053544B4552523A204275732046619C
:1010C000756C742063617573656420627920537454
:1010D00061636B205075736800554E53544B4552F5
:1010E000523A20427573204661756C7420636175B5
:1010F00073656420627920537461636B20506F7054
:1011000000494D5052454349534552523A20446597
:101110006C6179656420427573204661756C742C2E
:10112000206578616374206164647220756E6B6EF3
:101130006F776E005052454349534552523A204909
:101140006D6D6564696174652042757320466175D3
:101150006C742C2065786163742061646472206B08
:101160006E6F776E00494255534552523A20496E90
:10117000737472756374696F6E2041636365737312
:101180002056696F6C6174696F6E00554E44454618
:10119000494E5354523A20556E646566696E6564D3
:1011A00020696E737472756374696F6E00494E5670
:1011B00053544154453A20496E76616C6964204528
:1011C00050535220616E6420696E7374727563743B
:1011D000696F6E20636F6D62696E6174696F6E0016
:1011E000494E5650433A20496E76616C69642050EE
:1011F00043004E4F43503A20417474656D707469DA
:101200006E6720746F2075736520636F2D70726F29
:10121000636573736F720053544B4F463A20537497
:1012200061636B206F766572666C6F772065727292
:101230006F7220686173206F6363757272656400FA
:10124000554E414C49474E45443A20556E616C69B4
:10125000676E6564206D656D6F727920616363658B
:1012600073730044495642595A45524F00455854E9
:1012700045524E414C005643415443480044575454
:101280005452415000424B50540048414C54454444
:1012900000457863657074696F6E20233A00457865
:1012A00063657074696F6E206F63637572726564D5
:1012B00020696E2049535220746872656164206110
:1012C00074205043203D203078253038782E0A0095
:1012D000457863657074696F6E206F6363757272B1
:1012E000656420696E206261636B67726F756E64FE
:1012F00020746872656164206174205043203D2031
:101300003078253038782E0A00426F677573204593
:101310007863657074696F6E2072657475726E2083
:1013200076616C75653A20253038782E0A00546154
:10133000736B0053776900487769004D61696E00EF
:101340006D61696E282900457863657074696F6EF8
:10135000206F6363757272656420696E20546872D1
:10136000656164547970655F25732E0A00257320CA
:101370006E616D653A2025732C2068616E646C6522
:101380003A20307825782E0A002573207374616323
:101390006B20626173653A20307825782E0A00252B
:1013A0007320737461636B2073697A653A203078B7
:1013B00025782E0A005230203D20307825303878AC
:1013C0002020523820203D203078253038780A00FF
:1013D0005231203D20307825303878202052392075
:1013E000203D203078253038780A005232203D20C8
:1013F0003078253038782020523130203D20307828
:10140000253038780A005233203D20307825303896
:10141000782020523131203D203078253038780A2C
:10142000005234203D203078253038782020523149
:1014300032203D203078253038780A005235203D62
:1014400020307825303878202053502852313329E5
:10145000203D203078253038780A005236203D2053
:1014600030782530387820204C52285231342920C9
:101470003D203078253038780A005237203D203022
:101480007825303878202050432852313529203DA6
:10149000203078253038780A00505352203D2030D3
:1014A00078253038780A0049435352203D2030785F
:1014B000253038780A004D4D465352203D20307873
:1014C000253032780A0042465352203D203078259C
:1014D0003032780A0055465352203D20307825306E
:1014E00034780A0048465352203D20307825303861
:1014F000780A0044465352203D2030782530387811
:101500000A004D4D4152203D203078253038780A70
:101510000042464152203D203078253038780A007C
:1015200041465352203D203078253038780A0074E7
:10153000692E73797362696F732E6B6E6C2E5461B2
:10154000736B2E49646C655461736B000A006964A7
:101550003A20307825782061303A2030782578207C
:1015600061313A20307825780A00286E756C6C2934
:10157000003031323334353637383961626364656F
:101580006600286572726F7229004E414D45004514
:1015900072726F72207261697365643A20004173E0
:1015A00073657274206661696C65643A20006D61D0
:1015B000696E006E616E6F737461636B4E657477F4
:1015C0006F726B48616E646C65723A202578006EAC
:1015D000616E6F737461636B4E6574776F726B4885
:1015E000616E646C65723A20434F4E5F53544154B0
:1015F00055535F4C4F43414C5F55502C2049502070
:1016000025303278253032783A253032782530321C
:10161000783A25303278253032783A2530327825BC
:101620003032783A25303278253032783A253032E7
:1016300078253032783A25303278253032783A259C
:1016400030327825303278006E616E6F737461636A
:101650006B4E6574776F726B48616E646C65723A3D
:1016600020434F4E5F5354415455535F474C4F42B4
:10167000414C5F55502C2049502025303278253080
:1016800032783A25303278253032783A253032783F
:10169000253032783A25303278253032783A253084
:1016A0003278253032783A25303278253032783A1F
:1016B00025303278253032783A253032782530326C
:1016C00078006E616E6F737461636B4E6574776FD3
:1016D000726B48616E646C65723A20434F4E5F5383
:1016E00054415455535F4C4F43414C5F5550006E2D
:1016F000616E6F737461636B4E6574776F726B4864
:10170000616E646C65723A20434F4E5F535441548E
:1017100055535F474C4F42414C5F5550006E616ED0
:101720006F737461636B4E6574776F726B48616E33
:10173000646C65723A20434F4E5F53544154555385
:101740005F434F4E4E454354494E47006E616E6FA6
:10175000737461636B4E6574776F726B48616E640E
:101760006C65723A20434F4E5F5354415455535F5A
:10177000444953434F4E4E454354454400736F63B1
:101780006B65745F63616C6C6261636B28292073A5
:101790006F636B3D25642C206576656E743D3078F3
:1017A00025782C20696E746572666163653D2564D9
:1017B0002C2064617461206C656E3D256400736F3C
:1017C000636B65745F63616C6C6261636B3A205339
:1017D0004F434B45545F444154412C20736F636B1E
:1017E0003D25642C2062797465733D256400736F18
:1017F000636B65745F63616C6C6261636B3A205309
:101800004F434B45545F434F4E4E4543545F444F07
:101810004E4500736F636B65745F63616C6C6261EE
:10182000636B3A20534F434B45545F434F4E4E45F5
:1018300043545F4641494C00736F636B65745F634B
:10184000616C6C6261636B3A20534F434B45545F4C
:10185000434F4E4E4543545F415554485F464149BE
:101860004C00736F636B65745F63616C6C62616382
:101870006B3A20534F434B45545F494E434F4D49BC
:101880004E475F434F4E4E454354494F4E00736F92
:10189000636B65745F63616C6C6261636B3A205368
:1018A0004F434B45545F54585F4641494C00736F5A
:1018B000636B65745F63616C6C6261636B3A205348
:1018C0004F434B45545F434F4E4E4543545F434C4B
:1018D0004F53454400736F636B65745F63616C6C59
:1018E0006261636B3A20534F434B45545F434F4E05
:1018F0004E454354494F4E5F524553455400736F14
:10190000636B65745F63616C6C6261636B3A2053F7
:101910004F434B45545F4E4F5F524F5554450073F4
:101920006F636B65745F63616C6C6261636B3A20BB
:10193000534F434B45545F54585F444F4E450073DB
:101940006F636B65745F63616C6C6261636B3A209B
:10195000534F434B45545F4E4F5F52414D00736FA1
:10196000636B65745F63616C6C6261636B3A205397
:101970004F434B45545F434F4E4E454354494F4EA2
:101980005F50524F424C454D006F70656E696E67F7
:101990002075647020736F636B657400736F636B85
:1019A0006574206F70656E206661696C6564207770
:1019B000697468206572726F7220256400736574A3
:1019C00020727820627566666572206C656E2025CF
:1019D000782C2073746174757320257800736F639D
:1019E0006B65742062696E64206661696C65642051
:1019F00077697468206572726F72202564006C6567
:101A00006400727373690070756D70007570645F47
:101A10006E756D5F6361727300756E6B6E6F776E5E
:101A200000544C532D45434448452D4543445341B0
:101A30002D574954482D43484143484132302D5099
:101A40004F4C59313330352D5348413235360054DF
:101A50004C532D50534B2D574954482D4348414327
:101A6000484132302D504F4C59313330352D534889
:101A70004132353600544C532D45434448452D5092
:101A8000534B2D574954482D434841434841323028
:101A90002D504F4C59313330352D53484132353666
:101AA00000544C532D45434448452D454344534130
:101AB0002D574954482D4145532D3132382D43423D
:101AC000432D53484100544C532D45434448452D24
:101AD00045434453412D574954482D4145532D32D8
:101AE00035362D4342432D53484100544C532D4528
:101AF000434448452D45434453412D574954482DAF
:101B00004145532D3132382D4342432D5348413204
:101B1000353600544C532D45434448452D454344E8
:101B200053412D574954482D4145532D3132382DBD
:101B300047434D2D53484132353600544C532D45C3
:101B4000434448452D45434453412D574954482D5E
:101B50004145532D3235362D43434D00544C532DC2
:101B600045434448452D45434453412D5749544826
:101B70002D4145532D3235362D43434D2D380054DC
:101B80004C532D45434448452D45434453412D571F
:101B90004954482D4145532D3132382D43434D0092
:101BA000544C532D45434448452D45434453412D02
:101BB000574954482D4145532D3132382D43434D1B
:101BC0002D3800544C532D50534B2D574954482D0C
:101BD0004145532D3132382D47434D2D5348413225
:101BE000353600544C532D50534B2D574954482DE6
:101BF0004145532D3132382D4342432D5348413214
:101C0000353600544C532D50534B2D574954482DC5
:101C10004145532D3132382D4342432D5348410025
:101C2000544C532D50534B2D574954482D41455337
:101C30002D3235362D4342432D53484100544C53E9
:101C40002D50534B2D574954482D4145532D323576
:101C5000362D43434D00544C532D50534B2D574973
:101C600054482D4145532D3235362D43434D2D38A3
:101C700000544C532D50534B2D574954482D41453A
:101C8000532D3132382D43434D00544C532D505376
:101C90004B2D574954482D4145532D3132382D4352
:101CA000434D2D3800544C532D45434448452D5049
:101CB000534B2D574954482D4145532D3132382D22
:101CC0004342432D53484132353600544C532D4541
:101CD000434448452D50534B2D574954482D4145B9
:101CE000532D3132382D4342432D53484100544C3B
:101CF000532D45434448452D50534B2D5749544887
:101D00002D4145532D3235362D4342432D53484105
:101D10000000051EA9CC0000211A0000490604009D
:101D200003000000030000000300000003000000A7
:101D300000000000ABCC00004F1A0000490605006F
:101D40000300000003000000030000000300000087
:101D500000000000ACCC0000751A00004906080025
:101D60000300000003000000030000000300000067
:101D70000000000009C00000A11A000005040400D2
:101D80000300000001000000030000000300000049
:101D9000000000000AC00000C61A0000070404008A
:101DA0000300000001000000030000000300000029
:101DB0000000000023C00000EB1A0000050604002C
:101DC0000300000003000000030000000300000007
:101DD000000000002BC00000131B00000E060400D2
:101DE00003000000030000000300000003000000E7
:101DF00000000000ADC000003B1B00002D060400E9
:101E000003000000030000000300000003000000C6
:101E100000000000AFC000005C1B00002D060400A5
:101E200003000000030000000300000003000000A6
:101E300002000000ACC000007F1B00002B06040065
:101E40000300000003000000030000000300000086
:101E500000000000AEC00000A01B00002B06040024
:101E60000300000003000000030000000300000066
:101E700002000000A8000000C31B00000E060500C1
:101E80000300000003000000030000000300000046
:101E900000000000AE000000E31B00000506050086
:101EA0000300000001000000030000000300000028
:101EB000000000008C000000031C00000504050069
:101EC0000300000000000000030000000300000009
:101ED000000000008D000000201C00000704050029
:101EE00003000000000000000300000003000000E9
:101EF00000000000A5C000003D1C00002D060500EC
:101F000003000000030000000300000003000000C5
:101F100000000000A9C00000561C00002D060500AE
:101F200003000000030000000300000003000000A5
:101F300002000000A4C00000711C00002B06050078
:101F40000300000003000000030000000300000085
:101F500000000000A8C000008A1C00002B0605003D
:101F60000300000003000000030000000300000065
:101F70000200000037C00000A51C00000506080094
:101F80000300000001000000030000000300000047
:101F90000000000035C00000CB1C00000504080054
:101FA0000300000001000000030000000300000027
:101FB0000000000036C00000EE1C0000070408000E
:101FC0000300000001000000030000000300000007
:101FD0000000000000000000111D000000000000D3
:101FE00000000000000000000000000000000000F1
:101FF0000000000071400021DB4000219D400021D5
:1020000009410021154100212141002139410021D0
:1020100051410021DB420021074C657900F009F8AD
:1020200061796940490703D50121044A8903116098
:1020300070BD70B5024908478003002108110440B3
:102040002D59000000F019F8E1B26C290BD00428DA
:1020500001D0062807D110490978C90703D1217892
:10206000090700D402200D490A780C21114202D040
:102070000B4980220A6003B0F0BDF0B583B0094976
:1020800008470020084988470448017840229143C6
:102090000170064800470000C800002133010021FC
:1020A00000E200E041160300F7630000231B030079
:1020B00000F088F800480047577F000000F088F8DB
:1020C000004800471B880000094B1A780824A243E7
:1020D000002800D022431A70004A1047838E000067
:1020E00003490878000701D4024800477047000000
:1020F000800300215F7E0000044A282090470448A6
:10210000012141600348044A416010474F420000EA
:10211000005004400060044085420000F8B50149C9
:10212000084700000D64000070B51F4D2878C4B248
:102130001E4880472878032834D1032C32D01C480D
:102140008068400DC2071A48014660318030002A7D
:1021500003D01F240C57458802E01E240C57058825
:10216000002C1FD01348154A41690079414348109B
:1021700011494969401810494039497F9047400545
:102180004015694288420DDBA8420BDC0C4B996973
:1021900088B20246090C624309045212801880B2C8
:1021A0000843986170BD0000E402002179410000FD
:1021B000280000218003002100030021CB810000C2
:1021C00040400440806B0C490007000F4871704785
:1021D000094A0A4918235079CB56497EC0188142D2
:1021E00001DD084602E00F2800DD0F20D189090932
:1021F00009010143D1817047E002002188000021DC
:1022000010B501462B4B2C4800E020BF42699207D5
:10221000FBD12948DA7A403000680B2A01D100F05E
:1022200043F810BD2022521A9040244A00BA936904
:102230004340214800E020BF42699207FBD4880058
:102240001F494018C3631C4840300360704710B5F5
:10225000194800E020BF42699207FBD4426B174B3C
:10226000986950405A8AD40701D00124604052082E
:102270005A822022511A88400F4900BA4031086022
:1022800010BD10B50446FFF749FF0C49097C8909C8
:10229000C80708D00B48E10701D00B4900E00B4903
:1022A00001620B49416210BD2022511A884000BAD8
:1022B0007047000060010021002004402800002138
:1022C000C021044080030021A74200217D4200215B
:1022D000594200214E65696768626F7572204361DB
:1022E00063686520256400526561636861626C659E
:1022F0002054696D653A202575202020526574723E
:10230000616E732054696D65723A20257520202016
:102310004D54553A20256875002573495020416475
:1023200064723A20257300526F7574657220000044
:102330004C4C20416464723A20282573202575296D
:10234000202573004555492D36343A202028257321
:1023500020257529202573002020202020202020E2
:102360002028257320257529205B6E6F204555494F
:102370002D36345D0044657374696E6174696F6EE7
:102380002043616368653A00202573202825642076
:1023900069642920286C6966652025752900526FBB
:1023A0007574696E67207461626C653A002530321D
:1023B000783A004E455700494E434F4D504C4554D6
:1023C0004500524541434841424C45005354414C1D
:1023D000450044454C41590050524F424500554E2E
:1023E000524541434841424C45004743005245470E
:1023F000495354455245440054454E54415449565E
:10240000450020253234732F252D33752069663A17
:102410002575207372633A272573272069643A254E
:1024200064206C69666574696D653A2575002025C0
:102430003234732F252D33752069663A2575207344
:1024400072633A272573272069643A2564206C69F2
:10245000666574696D653A696E66696E6974650072
:1024600020202020204F6E2D6C696E6B20286D651A
:1024700074202564290020202020206E6578742D8A
:10248000686F7020257320286D65742025642900ED
:102490003F00537461746963004C6F6F70626163D5
:1024A0006B00557365720041524F005241647600D3
:1024B00052504C2044494F0052504C2044414F0050
:1024C00052504C2044414F2053520052504C205304
:1024D00052480052504C20526F6F740052504C20A2
:1024E000496E7374616E63650052504C2046776488
:1024F0002D4572726F72004D756C746963617374EF
:10250000004D504C0052495000546872656164009F
:10251000546872656164204E6574776F726B2064D5
:10252000617461005468726561642050726F7879DB
:1025300000546872656164204455412050726F7880
:1025400079005468726561642042425200526564A9
:102550006972656374002D2D2D2D2D424547494E1E
:102560002043455254494649434154452D2D2D2D74
:102570002D0D0A4D494942627A4343415255434623
:102580004873582F614F2F38736B5A2F334E415178
:10259000727A51393537482F614E5A4D416F474352
:1025A000437147534D343942414D434D4130784397
:1025B0007A414A0D0A42674E5642414D54416B4E94
:1025C000424D434959447A41774D4441774D5441F6
:1025D000784D4441774D444177576867504F546B6D
:1025E000354F5445794D7A45794D7A55354E546C71
:1025F000614D474D780D0A437A414A42674E564233
:10260000415954416B5A4A4D51307743775944569A
:1026100051514944415250645778314D51307743BC
:102620007759445651514844415250645778314D7E
:10263000513077437759440D0A5651514B4441521A
:10264000305A584E304D5130774377594456515196
:1026500044444152305A584E304D5267774667597C
:102660004A4B6F5A496876634E41516B4246676CDC
:10267000305A584E305148526C0D0A6333517757D7
:1026800054415442676371686B6A4F5051494242EA
:10269000676771686B6A4F50514D4242774E4341B4
:1026A0004152494A30685664596D507354466D59C9
:1026B00033676C56417A45366452450D0A3656707A
:1026C0003372455577714B71664D614A5776786420
:1026D0003845737A614D50365055776E346270725A
:1026E0004D6B5550526D49535465385431374B3802
:1026F0005A5352693867756E374D416F470D0A431B
:10270000437147534D343942414D43413067414D48
:102710004555434951437451776E56656D776C4901
:10272000556F58654D5A315745334A486A395841B3
:1027300049627867326C7765524A39315861560D73
:102740000A5667496744796674362B4746337533B2
:1027500031566D546C6A544D415A5A63434E525827
:10276000445030654E68612B674230546C4768595D
:102770003D0D0A2D2D2D2D2D454E442043455254FF
:10278000494649434154452D2D2D2D2D002D2D2DEC
:102790002D2D424547494E20434552544946494311
:1027A0004154452D2D2D2D2D0D0A4D4949424C7A70
:1027B000434231714144416745434168516F6F4421
:1027C0007442324446574673446C6B5679654B4CA1
:1027D0006B6B467132377654414B42676771686B59
:1027E0006A4F50515144416A414E0D0A4D51737721
:1027F000435159445651514445774A4451544169D3
:10280000474138774D4441774D4445774D544177A2
:102810004D4441774D466F59447A6B354F546B7830
:102820004D6A4D784D6A4D314F5455350D0A576AF2
:10283000414E4D5173774351594456515144457758
:102840004A445154425A4D424D4742797147534D83
:1028500034394167454743437147534D34394177D4
:102860004548413049414247305A4142442B0D0AC4
:1028700067384E7663394B4270772F6148686F69CD
:102880006D394B72717A4F59503571546D5A675387
:102890003875784D2F657165414A36767253697681
:1028A00057465432667848757A58472B796676735E
:1028B0000D0A6F504E67424A68762F594E684D395F
:1028C0004B6A4544414F4D41774741315564457707
:1028D00051464D414D4241663877436759494B6FE8
:1028E0005A497A6A304541774944534141775251B8
:1028F00049670D0A434B30302F574E71724C7A5353
:102900007437517475737467624C2B6B69625842EB
:102910007557466559426A55357950626148454355
:10292000495144386146775074322F6F584C4F5399
:10293000613767420D0A396E7770413172736D7A73
:10294000434A4C7662386F757851337568586267C0
:102950003D3D0D0A2D2D2D2D2D454E442043455234
:1029600054494649434154452D2D2D2D2D002020FD
:102970002025322E306425632530347820253034EC
:1029800078202530327820257325252564202825B8
:10299000732900444F444147202573002020473DC0
:1029A0002564204D4F503D2564205072663D2564BE
:1029B00000253234732F252D3375206C69666574BC
:1029C000696D653A696E66696E69746520707265D5
:1029D000663A256400253234732F252D3375206C1B
:1029E00069666574696D653A257520707265663A29
:1029F000256400253234732F252D3375206C6966CC
:102A00006574696D653A696E66696E69746520669C
:102A10006C6167733A25632563256300253234733F
:102A20002F252D3375206C69666574696D653A25AF
:102A30007520666C6167733A256325632563002002
:102A40002056657273696F6E2025640020202A432A
:102A5000757272656E742076657273696F6E2A2066
:102A600052616E6B3D253034780052504C20496ED7
:102A70007374616E6365202564002D2D2D2D2D2D21
:102A80002D2D2D2D2D2D2D2D2D0044494F207472CF
:102A900069636B6C6520496D696E3D25642C204926
:102AA0006D61783D25642C206B3D2564002020203D
:102AB000202020202020202020493D25642C206E2D
:102AC0006F773D25642C20743D25642C20633D25C3
:102AD00064002D2D2D2D2D424547494E205835306F
:102AE000392043524C2D2D2D2D2D002D2D2D2D2DEA
:102AF000454E4420583530392043524C2D2D2D2D34
:102B00002D00257343524C2076657273696F6E20D9
:102B100020203A202564000A257369737375657255
:102B2000206E616D652020203A20000A25737468AC
:102B30006973207570646174652020203A20253007
:102B400034642D253032642D253032642025303216
:102B5000643A253032643A25303264000A25736EB7
:102B6000657874207570646174652020203A202592
:102B70003034642D253032642D25303264202530E8
:102B800032643A253032643A25303264000A2573C3
:102B90005265766F6B6564206365727469666963FC
:102BA000617465733A000A257373657269616C20FC
:102BB0006E756D6265723A2000207265766F636192
:102BC00074696F6E20646174653A20253034642D19
:102BD000253032642D2530326420253032643A2588
:102BE0003032643A25303264000A25737369676EA7
:102BF0006564207573696E6720203A20000A000022
:102C00000800000000000000000804FF000000FFB2
:102C1000FFFF000C1100000000000000001D11006B
:102C2000000000000000002E010F000000FF000067
:102C3000002F0100000000FF000000300100000034
:102C400000FF000000310100000000FF0000003222
:102C50000100000000030000003301000000000339
:102C600000000034010000000001000000350200F7
:102C7000000000FFFF0000370200000000FF00001E
:102C800000390200000000FF0000003B02000000CD
:102C900000FFFF00003D0200000000FFFF00003EBB
:102CA0000100000000010000003F010000000001E1
:102CB000000000400100000000070000004120006B
:102CC00000000000000000610200000000FFFF00A3
:102CD00000630800000000000000006B0800000016
:102CE0000000000000730800000000000000007BEE
:102CF00008000000000000000083020500000058EA
:102D000002000085010000000010000000860200A3
:102D100000000032000000880200000000320000C5
:102D2000008A02000000000A000000002D7103006C
:102D30000011AE0300028BB30000004FCE0400016F
:102D40008BB30000004FCE040003E9880200004F5F
:102D5000CE04000409CC04000403CC0400008BB3AF
:102D600000000115CC0400010FCC0400014FCE047B
:102D700000014FCE0400014FCE0400009DE003008F
:102D8000014FCE0400014FCE0400018BB3000001BF
:102D90004FCE0400014FCE04000215CC0400020FF8
:102DA000CC0400024FCE0400009DE00300024FCE91
:102DB0000400024FCE040002DDA50300024FCE0442
:102DC00000028BB300000403CC0400024FCE0400C9
:102DD0000315CC0400030FCC0400038BB3000003E5
:102DE0008BB30000034FCE040003E9880200034FB9
:102DF000CE0400009DE00300034FCE0400034FCE3D
:102E00000400034FCE04000415CC0400040FCC04CE
:102E100000048BB30000048BB30000048BB30000EC
:102E2000048BB3000004DDA50300044FCE040004AE
:102E30008BB300000403CC0400009DE0030001FFFD
:102E400000808080808080808080909090909080B2
:102E50008080808080808080808080808080808072
:102E60008018040404040404040404040404040492
:102E70000402020202020202020202040404040426
:102E800004044343434343434141414141414141A0
:102E90004141414141414141414141410404040416
:102EA0000404232323232323212121212121212140
:102EB0002121212121212121212121210404040476
:102EC0008000000000000000000000000000000082
:102ED00000000000000000000000000000000000F2
:102EE00000000000000000000000000000000000E2
:102EF00000000000000000000000000000000000D2
:102F000000000000000000000000000000000000C1
:102F100000000000000000000000000000000000B1
:102F200000000000000000000000000000000000A1
:102F30000000000000000000000000000000000091
:102F400000000FAC982F8A4291443771CFFBC0B577
:102F5000A5DBB5E95BC25639F111F159A4823F9264
:102F6000D55E1CAB98AA07D8015B8312BE853124BD
:102F7000C37D0C55745DBE72FEB1DE80A706DC9B7E
:102F800074F19BC1C1699BE48647BEEFC69DC10F2A
:102F9000CCA10C246F2CE92DAA84744ADCA9B05C66
:102FA000DA88F97652513E986DC631A8C82703B029
:102FB000C77F59BFF30BE0C64791A7D55163CA0637
:102FC00067292914850AB72738211B2EFC6D2C4D43
:102FD000130D385354730A65BB0A6A762EC9C28131
:102FE000852C7292A1E8BFA24B661AA8708B4BC2C7
:102FF000A3516CC719E892D1240699D685350EF4F1
:1030000070A06A1016C1A419086C371E4C774827A7
:10301000B5BCB034B30C1C394AAAD84E4FCA9C5B1D
:10302000F36F2E68EE828F746F63A5781478C8846E
:103030000802C78CFAFFBE90EB6C50A4F7A3F9BE50
:10304000F27871C60097B92EE5725CCB5DCAE47365
:10305000B82F0196BA2D03945FC8E671E7705EC978
:103060000295BB2CE3745ACD0691BF28BE29079068
:103070005BCCE27559CEE077BC2B05920493BD2A58
:10308000E17658CF51C6E87FB4230D9A0C9BB52248
:10309000E97E50C7EB7C52C50E99B720B6210F9838
:1030A00053C4EA7DB2250B9C57C0EE79EF7856C128
:1030B0000A9DB324089FB126ED7A54C355C2EC7B18
:1030C000B027099EA2351B8C47D0FE69FF6846D108
:1030D0001A8DA334188FA136FD6A44D345D2FC6BF8
:1030E000A037198E41D6F86FA4331D8A1C8BA532E8
:1030F000F96E40D7FB6C42D51E89A730A6311F88D8
:1031000043D4FA6DF3644ADD1681AF38AE391780C7
:103110004BDCF26549DEF067AC3B15821483AD3AB7
:10312000F16648DF1087A93EF5624CDB4DDAF463A7
:10313000A83F1186AA3D13844FD8F661F7604ED997
:103140001285AB3C0001363601010001020100018D
:103150000301000104010606080400000C0100340C
:103160000D01000F10040101140100FF16080000FA
:1031700020020000220100FF23010001240100FEC3
:103180002501000826020000280100012901000194
:103190002A0200002C01000F2E0200003001000165
:1031A00031010008320200FF34010007350102FF3F
:1031B000360100003701000138010001390100FF2C
:1031C0003A01000F3C0200FF3E01010F3F010001E8
:1031D0004001041F41010001420100FF4301008042
:1031E000440800004E0100084F01000F500100018B
:1031F000510100FF5201000A5301008954010001EE
:10320000580400005C040000600400006404000036
:10321000680400006C0400007004000074040000E6
:10322000780400007C040000800100FF810100019F
:103230008201000183010102840100014145532DF7
:103240003132382D454342004145532D3139322D1D
:10325000454342004145532D3235362D454342000A
:103260004145532D3132382D434243004145532DC2
:103270003139322D434243004145532D3235362DED
:10328000434243004145532D3132382D47434D00D1
:103290004145532D3139322D47434D004145532D82
:1032A0003235362D47434D004145532D3132382DAF
:1032B00043434D004145532D3139322D43434D0099
:1032C0004145532D3235362D43434D00434841434C
:1032D000484132300043484143484132302D504F3D
:1032E0004C5931333035004145532D3132382D4B57
:1032F00057004145532D3139322D4B57004145532D
:103300002D3235362D4B57004145532D3132382D56
:103310004B5750004145532D3139322D4B575000FA
:103320004145532D3235362D4B5750002D2D2D2D27
:103330002D424547494E204543205052495641545D
:1033400045204B45592D2D2D2D2D0D0A4D486343FC
:1033500041514545494F784F7131784C2B4876356E
:103360006867365A673431705658706B6A4C546BC4
:103370005A78587242484A63457854554D416674AC
:103380006F416F4743437147534D34390D0A4177BD
:1033900045486F5551445167414553436449565818
:1033A000574A6A3745785A6D4E344A56514D784FD0
:1033B0006E55524F6C61643678464D4B69716E7A2A
:1033C00047695672385866424C4D326A442B0D0A92
:1033D0006A314D4A2B4736617A4A4644305A69452C
:1033E0006B3376453965797647556B5976494C701C
:1033F0002B773D3D0D0A2D2D2D2D2D454E4420457D
:10340000432050524956415445204B45592D2D2DAE
:103410002D2D00FF02000000C84500000300000041
:10342000704600000400000018470000050000007E
:10343000904500000600000038460000070000002C
:10344000E04600000E000000E44500000F00000010
:103450008C46000010000000344700002B000000E4
:10346000AC4500002C000000544600002D00000078
:10347000FC460000480000008847000049000000AA
:10348000A44700004A000000004600004B00000076
:10349000A84600004C000000504700004D0000000E
:1034A0001C4600004E000000C44600004F00000013
:1034B0006C47000000000000000000002D2D2D2DA5
:1034C0002D424547494E20454320505249564154CC
:1034D00045204B45592D2D2D2D2D002D2D2D2D2DDC
:1034E000454E442045432050524956415445204BB7
:1034F00045592D2D2D2D2D002D2D2D2D2D4245479E
:10350000494E2050524956415445204B45592D2D86
:103510002D2D2D002D2D2D2D2D454E442050524961
:1035200056415445204B45592D2D2D2D2D002D2D27
:103530002D2D2D424547494E205055424C494320A0
:103540004B45592D2D2D2D2D002D2D2D2D2D454E3D
:1035500044205055424C4943204B45592D2D2D2D8B
:103560002D00FF0038C40D00C800000081000000DD
:103570003200050138C40D00C800000081000000C1
:1035800032000F0138C40D00C800000081000000A7
:103590006400050138C40D00C8000000810000006F
:1035A00064000F0138C40D00C80000008100000055
:1035B0009600050138C40D00C8000000810000001D
:1035C00096000F0138C40D00C80000008100000003
:1035D000C800050138C40D00C800000081000000CB
:1035E000C8000F0138C40D00C800000081000000B1
:1035F0002C01050138C40D00C80000008100000046
:103600002C010F016865617000433A2F74692F73B4
:10361000696D706C656C696E6B5F6363313378786C
:103620005F6363323678785F73646B5F375F313026
:103630005F30315F32342F736F757263652F746939
:103640002F74695F776973756E66616E2F6D626541
:10365000645F706F72742F6D6265646E616E6F73FC
:103660007461636B32746972746F732F6E616E6F05
:10367000737461636B2F6E616E6F737461636B2D16
:1036800068616C2D6D6265642D636D7369732D7255
:10369000746F732F6E735F68616C5F696E69742EEF
:1036A0006300686172647761726520657863657034
:1036B00074696F6E206964203D2025642C2070633E
:1036C000203D203078253038782028433A2F7469FF
:1036D0002F73696D706C656C696E6B5F63633133FA
:1036E00078785F6363323678785F73646B5F375FD7
:1036F00031305F30315F32342F6B65726E656C2F05
:10370000746972746F73372F7061636B616765736F
:103710005C74692F73797362696F732F66616D6969
:103720006C792F61726D2F6D332F4877692E633A54
:103730003130393229000000C1CB04003189040046
:103740008D5C01000000000011890400E57F03008A
:10375000BD0903000000000035AB04003D0B030071
:103760002D7102002800000051890400414E030021
:1037700061EA02002E000000F188040019A0030095
:103780009D0C04003C00000001B0040019DB0300A4
:103790004DA902007C000000993C0400D5E902001C
:1037A000B92203004C000000052B040045800300F3
:1037B000C9A0030084000000254D0400D54D03007E
:1037C00071A003009C000000FFFFFFFFFFFFFFFF51
:1037D00000000000000000000000000000000000E9
:1037E00000000000000000000000000000000000D9
:1037F00000000000000000001400000000000000B5
:1038000000000000000001010000000000000000B6
:1038100000000000000000000000000000000000A8
:103820000000000000000000000000000000000098
:103830000000000000000000000000000000000088
:1038400000000000000000000000007800080200F6
:1038500030000A005F0B000003000000630B000053
:103860007A0B0000000100008C0B00000300000038
:10387000900B00009F0B000004000000A90B00004B
:1038800003000000AD0B0000BF0B000000080000AB
:10389000D20B000003000000D60B0000EB0B000071
:1038A00020000000FC0B000009000000060C0000D6
:1038B0001B0C000000000100350C0000030000009C
:1038C000390C0000530C000008000000000000004C
:1038D00000000000000000000000000000000000E8
:1038E00048776920616C72656164792064656669F6
:1038F0006E65643A20696E74722320256420284323
:103900003A2F74692F73696D706C656C696E6B5FAB
:103910006363313378785F6363323678785F7364DA
:103920006B5F375F31305F30315F32342F6B6572E0
:103930006E656C2F746972746F73372F7061636B6F
:10394000616765735C74692F73797362696F732F34
:1039500066616D696C792F61726D2F6D332F4877B9
:10396000692E633A33383529006E6F204953522C43
:10397000206964203D2025642C207063203D203088
:1039800078253038782028433A2F74692F73696D71
:10399000706C656C696E6B5F6363313378785F63FD
:1039A00063323678785F73646B5F375F31305F30D6
:1039B000315F32342F6B65726E656C2F746972746F
:1039C0006F73372F7061636B616765735C74692F08
:1039D00073797362696F732F66616D696C792F619A
:1039E000726D2F6D332F4877692E633A3130393538
:1039F00029006F7574206F66206D656D6F72793A5E
:103A000020686561703D307825782C2073697A656F
:103A10003D25752028433A2F74692F73696D706CAA
:103A2000656C696E6B5F6363313378785F636332B3
:103A30003678785F73646B5F375F31305F30315F4A
:103A400032342F6B65726E656C2F746972746F738C
:103A5000372F7061636B616765735C74692F73796D
:103A60007362696F732F72756E74696D652F4D6522
:103A70006D6F72792E633A373829000036000100E5
:103A80000600000000000000000F00000000000021
:103A9000000000000000000000000300FFFF000025
:103AA0000403FFFF0000FFFF0F00E8030005401FB5
:103AB0000310000101000000FF3F0F0008000E008E
:103AC00000000000000000000300010F00000901D9
:103AD00000000000000000000000000000000000E6
:103AE00000000000000000000000000000000000D6
:103AF000000000000000000000000000AD00000118
:103B000000000000696E746E756D3A2025642069AE
:103B100073206F7574206F662072616E6765202850
:103B2000433A2F74692F73696D706C656C696E6BA5
:103B30005F6363313378785F6363323678785F73BD
:103B4000646B5F375F31305F30315F32342F6B65CC
:103B5000726E656C2F746972746F73372F70616346
:103B60006B616765735C74692F73797362696F73D6
:103B70002F66616D696C792F61726D2F6D332F48DF
:103B800077692E633A33373729007F7F7F7F7F7FC6
:103B90007F7F7F7F7F7F7F7F7F7F7F7F7F7F7F7F35
:103BA0007F7F7F7F7F7F7F7F7F7F7F7F7F7F7F7F25
:103BB0007F7F7F7F7F3E7F7F7F3F34353637383949
:103BC0003A3B3C3D7F7F7F407F7F7F0001020304C3
:103BD00005060708090A0B0C0D0E0F10111213141D
:103BE00015161718197F7F7F7F7F7F1A1B1C1D1EDC
:103BF0001F202122232425262728292A2B2C2D2E5D
:103C00002F303132337F7F7F7F7F040A1000000620
:103C10000000000000000000201C00000000000068
:103C20004038000000000000602400000000000098
:103C30008070000000000000A06C00000000000088
:103C4000C048000000000000E05400000000000038
:103C500000E100000000000020FD00000000000066
:103C600040D900000000000060C500000000000016
:103C70008091000000000000A08D00000000000006
:103C8000C0A9000000000000E0B500000000000036
:103C900025735B455252205D5B252D34735D3A20C0
:103CA000001B5B33316D001B5B33336D0025735B91
:103CB000494E464F5D5B252D34735D3A20001B5BFA
:103CC00033396D0025735B444247205D5B252D34FD
:103CD000735D3A20001B5B39306D002020202020CE
:103CE0002020202020202020202020001B5B306D61
:103CF0000A0D003C6E756C6C3E003C6572723E00B5
:103D000000253032783A0000810C0100D1EE01002C
:103D1000000000000000000000000000319F0400CF
:103D200091AC040015FE02007DC10400C9CC040062
:103D3000C3CC0400A1A8040000000000B7CC04001C
:103D4000AD0F0300D5A703009180040091FD020090
:103D500057B10400D15502006D4D0100D14503005B
:103D6000F18004000000000035E20300199F040008
:103D7000E1B8020053534C76332E3000544C537646
:103D8000312E3000544C5376312E3100544C537642
:103D9000312E3200756E6B6E6F776E00636C6965E5
:103DA0006E742066696E6973686564007365727607
:103DB00065722066696E6973686564006D6173740D
:103DC000657220736563726574006B657920657830
:103DD00070616E73696F6E00902400000000000037
:103DE0009224000099240000A2240000A7240000CF
:103DF000AB240000B0240000B8240000C024000060
:103E0000CB240000D3240000DC240000E9240000BF
:103E1000F724000001250000052500000925000009
:103E20001025000024250000312500004225000057
:103E30004D25000000000200000004000200020006
:103E40000000280004000100000002000000000043
:103E5000000000000500010000000700060001004E
:103E60000000030007000800000000000F00010030
:103E70000100FF001000080000000000180008000A
:103E80000000000022000200000000008E00000080
:103E90008E0001008E0002008E0003008F000001E2
:103EA0008F0000028F0000038E0001048E000005C9
:103EB0008E0008048E0000048900000650000000F7
:103EC0007F0001003F0004003F0002003F000100AE
:103ED0007F0002008E0002048E0001028E000101AC
:103EE000640E0000090000006E0E00007C0E000051
:103EF00001000000800E000007000000880E000096
:103F0000970E000002000000A60E00000500000051
:103F1000AC0E0000B40E0000030000000000000022
:103F20000000000000000000000000000000000091
:103F3000E20D000007000000EA0D0000FA0D00008D
:103F4000040400000A0E000008000000130E000028
:103F5000250E000005040000370E000008000000D8
:103F6000400E0000520E0000060400000000000099
:103F70000000000000000000000000000000000041
:103F80006B65795F73746F726167655F3030007065
:103F900061655F6E775F696E666F007061655F6B0C
:103FA000657973007061655F6672616D655F636FEF
:103FB000756E746572006B65795F73747267655FA7
:103FC000696E646578006D616C6C6F632066616911
:103FD0006C656420696E206173736572740041734F
:103FE00073657274696F6E206661696C65642C20FC
:103FF000282573292C2066696C652025732C206C7C
:10400000696E652025640A002E000054696D6520E4
:10401000253032753A253032753A253032752E25E5
:1040200075202825752E2575292052504C206D6548
:104030006D6F727920757361676520257500525028
:104040004C20446F6D61696E202570008DAB0400BB
:1040500031B50400E5BF040021B50400A7C5040084
:10406000EBCB0400E5CB04000000000000000000E2
:104070000000000000000000000000000000000040
:104080000000000039C004002DC00400C00300007F
:1040900080070000000F0000001E0000003C000030
:1040A0000078000000F0000000E0010000C0030004
:1040B0000080070000000F0000001E0000003C0010
:1040C000000078000000F0000000F00039384141A5
:1040D000003833333544433136334242313234428F
:1040E000363531323943393646444539333344382D
:1040F0004437323341373041414443383733443613
:104100004435344137424230440044414F205461E9
:1041100072676574733A002020252D343073202592
:10412000303278207365713D2564257325732573BE
:10413000002B0000202870756229002028452900E6
:10414000073800000000000000000000000121030B
:104150000F008000520798E00800C81020D6002009
:104160009603990505000000000000000000000013
:10417000043800000000000000000000000188F981
:104180004E90550000000000FF0710580000FC0191
:10419000000000000000000000000000000000001F
:1041A00004000000D6480000CFCE0400D7C70400AA
:1041B000BD6E04001B9A0400000000000000000017
:1041C000CBCE040099A00400F9B104001DAD040099
:1041D00002000000CD480000CFCE0400C9A00400BA
:1041E00027DE03000FBE03000000000000000000F7
:1041F000CBCE0400B1A004000BB204001DAD04003E
:1042000003000000D0480000CFCE0400D5BC04005D
:10421000000000000000000000000000000000009E
:10422000CBCE0400B1A004000BB204001DAD04000D
:1042300017CA04002DCC040089310400D17F04008A
:1042400091C20300B99E0400391B0300DDC20300C4
:104250008DC00400B1170200C40E00000800000069
:10426000CD0E0000CD0E0000030000000000000095
:10427000000000000000000000000000000000003E
:10428000496E697420436F756E746572000000009A
:104290005061697277697365206B65792065787004
:1042A000616E73696F6E0077735F746C7300636C1B
:1042B00069656E742045415020656E637279707433
:1042C000696F6E002B06010505070804000C5A9E55
:1042D00001000000010000000000000000000000DC
:1042E00000000000010000000100000001000000CB
:1042F00001000000000000000000000000000000BD
:1043000001000000000000000002000000000000AA
:104310000000000001000000303132333435363700
:104320003839616263646566003031323334353662
:10433000373839414243444546000000C8DA00207E
:1043400064D5002040410000104800005C4300009C
:1043500070410000744500000000000003380000B8
:10436000000000000000000082010810140000841A
:10437000000000004E90550000000000000000000A
:10438000000000000000000000000000000000002D
:10439000000000000000000000000000020000001B
:1043A000A3CE04008DB1040000000000ABCE0400D9
:1043B000A7CE0400F19F04009FB10400020000009A
:1043C0000000000000000000000000009BC7040087
:1043D0009BC7040021A00400B1B104000900000043
:1043E0000000000000000000F9A80400C1900400D3
:1043F000C190040039A00400C3B10400090000000A
:10440000000000000000000000000000DD9004003B
:10441000DD90040051A00400D5B10400FFFFFFFFB0
:104420000000000000000000000000003A013A0116
:10443000000000000000000000000000020000007A
:10444000000000000000000000000000E1C70400C0
:10445000E1C70400359A04001DB204000200000008
:1044600000000000000000000000000065B2040031
:1044700053B20400A1A1040077B204004B60D2271C
:104480003E3CCE3BF6B053CCB0061D65BC8698765C
:1044900055BDEBB3E7933AAAD835C65A96C298D819
:1044A0004539A1F4A033EB2D817D0377F240A4635D
:1044B000E5E6BCF847422CE1F2D1176BF551BF3766
:1044C0006840B6CBCE5E316B5733CE2B169E0F7C39
:1044D0004AEBE78E9B7F1AFEE242E34F512563FCD5
:1044E000C2CAB9F3849E17A7ADFAE6BCFFFFFFFF6F
:1044F000FFFFFFFF00000000FFFFFFFFFFFFFFFFC8
:10450000FFFFFFFFFFFFFFFF0000000000000000B3
:104510000000000001000000FFFFFFFF7061655F09
:104520006672616D655F636F756E74657200706150
:10453000655F6E775F696E666F00000004000000C3
:10454000080000001000000000000000040000004F
:104550000800000010000000400D0300801A060053
:10456000C0270900A086010090D0030000350C0090
:10457000804F12000538000000000000000000001D
:10458000000000000000000000000000000000002B
:1045900005020000800000006032000010000000F2
:1045A00000000000100000009C4300002B080000E9
:1045B00080000000A83200000C0000000100000094
:1045C00010000000BC430000020100008000000059
:1045D0003C3200000000000000000000100000005D
:1045E0009C4300000E0600008000000084320000A2
:1045F0000C00000001000000100000003C4400001E
:104600004A0B000080000000E732000000000000BC
:1046100000000000100000005C4400004D0C000091
:1046200080000000083300000000000000000000CF
:10463000100000005C44000006020000C000000002
:104640006C320000100000000000000010000000AC
:104650009C4300002C080000C0000000B4320000A1
:104660000C0000000100000010000000BC4300002E
:1046700003010000C00000004832000000000000FC
:1046800000000000100000009C4300000F06000026
:10469000C0000000903200000C000000010000008B
:1046A000100000003C4400004B0B0000C000000064
:1046B000F2320000000000000000000010000000C6
:1046C0005C4400004E0C0000C000000014330000E9
:1046D0000000000000000000100000005C4400002A
:1046E0000702000000010000783200001000000006
:1046F00000000000100000009C4300002D08000096
:1047000000010000C03200000C00000001000000A9
:1047100010000000BC430000040100000001000084
:1047200054320000000000000000000010000000F3
:104730009C43000010060000000100009C320000B5
:104740000C00000001000000100000003C440000CC
:104750004C0B000000010000FD32000000000000D2
:1047600000000000100000005C4400004F0C00003E
:1047700000010000203300000000000000000000E5
:10478000100000005C440000480700000001000029
:10479000CC3200000C00000000000000010000000E
:1047A000DC430000490A000000010000D53200008F
:1047B0000C0000000000000001000000FC430000AD
:1047C0002D2D2D2D2D424547494E2043455254490C
:1047D0004649434154452D2D2D2D2D00000000004C
:1047E00000000000E80300000000000000000000DE
:1047F00000000000000000001A1B2A2B034A4B0592
:104800001A1A1A1A1A1A1A1A1A1B2A2B034A4B05B1
:1048100003080000000000000000000000019603F3
:104820003433000000000000030017000001000006
:10483000124C00000000000000000000000000001A
:104840000000000000000000000000000000000068
:104850000E0000000B00000000000000000000003F
:104860000100000000000000E00000000100000066
:10487000FF0000000000000080A90300FF0000000E
:104880000000000080A903000000000000010101F9
:1048900001000001010000000000000000000053C2
:1048A0004841310053484132323400534841323597
:1048B00036005348410050726F632D547970653A49
:1048C00020342C454E435259505445440045430032
:1048D00045435F44480045434453410065636B656D
:1048E000792E5100010070005000040003006000A8
:1048F00002000000050006000700000000000000A4
:10490000DD980200E99E04000101010000000000A2
:10491000020000000000000000000000FFFFFFFF99
:104920000000000000010801100120014001800189
:1049300000020004FEFFFFFF000000000000000076
:104940000000000005000000000000000016101626
:104950000E18151C0212032428600302100260FFC7
:104960000300000000000000000000000000FCFF49
:10497000010000000000000000000000000001FF36
:10498000010000000000000000000000000002FF25
:10499000020000000000000000000000000001FF15
:1049A000020000000000000000000000000002FF04
:1049B00002000000000000000000000000001A00DB
:1049C000000000000000000000000000000001FFE7
:1049D000030000000000000000000000000001FFD4
:1049E000030000000000000000000000000002FFC3
:1049F00005000000000000000000000000000200B0
:104A000000000000000000000000000000000000A6
:104A10000200000000000000FFFFFFFF0000000098
:104A20000200000000000000FFFFFFFF0000000088
:104A30000200000000000000FFFFFFFF0000000078
:104A4000FF0300000000000000000000000000FD67
:104A5000FF0200000000000000000000000000FD58
:104A6000FF0500000000000000000000000000FD45
:104A700088D1002030BF0020ACBF0020FFFFFFFF27
:104A80002812002070480000AC1200207C48000072
:104A9000000102030001010300010203FF030303FD
:104AA000000000FF0001010300010203FF030303F4
:104AB000B7210000B7210000FD210000FE21000009
:104AC00001050A19010A1428010F1E3C0214326460
:104AD000F0000000FFFFFF0FFFFFFF0F00080000C6
:104AE000600000000A0000000C0000000000000050
:104AF00000000000000000000000000000000000B6
:104B00006B65795F73747267655F696E6465780061
:104B1000AEC0000000000000000000000000000027
:104B2000576953756E496E746572666163650000FE
:104B30006B65795F73746F726167655F3030000019
:104B4000FF0200000000000000000001FF00000064
:104B5000FF0000000000000000010000A65959A657
:104B6000562500002C330000000000008D270000B7
:104B7000000000000000000024000020D4000020FD
:104B800080080020A04C0000A84C0000B04C0000A1
:104B9000D041000000420000A0410000F6230000C8
:104BA000F9230000F82300000000000000000000CE
:104BB0000000FFFF30420000B5CA0020B84C0000E2
:104BC000FF000100B399040007000000C8010000C5
:104BD0005BD004003D62040000000000F1DB030034
:104BE000F9680300419A0300A1980400A1D40300CE
:104BF00000000000000000000000000000000000B5
:104C0000000000000000000001010104000001009C
:104C1000020273656370323536723100416E6F6E19
:104C2000796D6F7573007061655F6B6579730000F6
:104C300010D6002014D60020FE80000000000000E6
:104C400038C500203F2E0000E0C8002013340000CB
:104C5000B8C6002062350000A6A6A6A6A6A6A6A6EF
:104C60008F4900006F490000AEC000000000000046
:104C700001020003020001034500230037001B006E
:104C800000000000000000000004081000040810EC
:104C90000000050038003801FF000000000000009F
:104CA0009F48000004144000A4480000051C400078
:104CB000AB4800000620400000800A0000400000D1
:104CC0008F1500009E15000075200400019F040050
:104CD0000100000000060701010202030404257818
:104CE000002F25750000FFFF000180002600120044
:104CF0000C00810040002A00000000FFFE000000C0
:104D0000009AA8A80B007017010A0B000B00010302
:104D1000551D2000000000000000000022000100DE
:104D20004400010000BE020800020810000000005C
:104D3000354525150C0E0811000105090001341E2A
:084D4000C9BF04000CD40020DF
:104D48002DE9F04F99B0D74E0446406806F528651E
:104D580010282F4600F06C80A06B002867D02046F2
:104D680035F056FF0746002862D160680F285ED8E4
:104D7800DFE810F0100012006200A300A900EE00A6
:104D880037014E0154019A01120218021E02240230
:104D98002A022C0201200BE322689069002800F007
:104DA800198292F87600A06092F87700E06092F895
:104DB8007400E0B392F87510B2F87820D4F8A09097
:104DC800C2F3400209F1040347F0B3FFA56B48F0B2
:104DD80007F800BA05F5E8711C22C5F8CC0120686F
:104DE800D0E906309847074610BBA16B09F10600C9
:104DF800202201F5E67148F033F9606B006910284C
:104E080005D3202803D8A16BD1F8501201B900208E
:104E1800002189F8260009EB0106884200F0FE818E
:104E2800626B0A440131127D86F82720F3E72F468A
:104E3800384619B0BDE8F08F47F0F9FD074600285D
:104E4800F6D1606F162840F0E581D4F8800006F5A9
:104E580000772A28C0F0B784D4F86CA09AF800002C
:104E6800022840F0B08420680AF1040804F10C0913
:104E78004346B0F8781004F10800C1F340024946EF
:104E880047F040FD2168A26806F5506C91F876302D
:104E98009A420EDBD9F8003091F87700834208DB9C
:104EA80091F87400824204DC91F87500834240F363
:104EB800A3834622674600F087BC204619B0BDE8A8
:104EC800F04F0CF06FBEA06B0121D0F8C451204602
:104ED80012F0D4F807460028AAD1606F162840F0CF
:104EE800F481E06E01780C2940F0E681AA7A011D70
:104EF8001891D4F88010531F032B0AD806291FDBFA
:104F080083888F1F1B041BBA9F4219DB0344063397
:104F1800189306F5786B082A00F26B83012303FACD
:104F280002F212F48C7F00F03C8200EB010AA06BC5
:104F380018A9524604303CF005FC002800F0D9823C
:104F4800204602212F223EF08BFB06F180076FE7F7
:104F5800A06BD0F8C401807A0A2800F2AB8146F031
:104F680084FE00F0A78147F062FD074600287FF421
:104F78005FAF606F162840F0A8816168E06E01316C
:104F8800616001780D39B1FA81F14FEA5111C4F825
:104F9800B81040F0A281D4F8801004291CD90279F5
:104FA800931D994218D9E568032D0BD11518C35CD8
:104FB8006D7943EA05231A44D31D99420CD902F1AD
:104FC80008030232C35C1044407943EA00201044CD
:104FD8000730814200F0ED8147F072FB06F58077DB
:104FE80026E747F024FD074600287FF421AF606FCD
:104FF800162840F06F81D4F88000042804D1E06EB0
:1050080000780E2800F0D28147F05AFB37460FE7A8
:10501800204619B0BDE8F04F20F0B2BBA06BD0F825
:10502800C451A97A0A2900F2D880012202FA01F1B2
:1050380011F4C36F00F0D1802168D4F8A0200430A7
:10504800D1E906310432CDE9003107A94FF47A736A
:1050580036F0A6FA074600287FF4EAAE2068A26B6D
:105068008023D0E90610CDE90010101D02F5E47187
:1050780002F503722BF05EFB074600287FF4D8AEDA
:105088000426079916203144C4E92901D4F8A00060
:105098001021017060680130606020462FF0B0FC7C
:1050A8000746C5E68084FFFFA06BD0F8C4510020F6
:1050B800189020461FF0ACFD074600287FF4B8AED4
:1050C800A87A0A2800F2728146F0CFFD00F06E81BE
:1050D800D4F8B800002800F06981A56B15B1D5F89F
:1050E800440120B92068C06C002800F05F81006886
:1050F800002800F05B81204645F032F9002800F0D6
:105108004A81D5F8B83107A917AA20469847E06818
:10511800032840F04381A06BD4F8A010D0F8C40154
:10512800457A0420072D08BF05200871204645F060
:1051380017F946F0F1FBD4F8A0100026179648712D
:10514800204645F00DF92168D4F8A020D1E90631B0
:10515800083218AF0496072DCDE90027CDE90231B2
:1051680018BF062507AA2946002332F057FD07462F
:1051780000287FF45DAE1899D4F8A0000A0A82715D
:10518800D4F8A000C17101F108001621C4E9291062
:10519800D4F8A0000F217CE7204619B0BDE8F04FF5
:1051A80045F00EB9204619B0BDE8F04F2CF0ACB868
:1051B800204619B0BDE8F04F36F042BA204619B083
:1051C800BDE8F04F24F0AAB80F20F1E020463AF0ED
:1051D80043FDEEE006F5F0672AE6284646F0CAFDEC
:1051E80006F5786700283FF423AED4F800804046DF
:1051F80045F012FA00283FF41BAED8F86C006FF4A3
:105208008052A0F6FB710790914280F0A88006F5C5
:105218008C570DE606F590670A22D5E22068E1680A
:1052280006F1290B4FF000084FF0000A50F82170E2
:105238003868F0B145F070F805462068214690F8C6
:10524800753090F87720284640F0F0FE78B9284667
:1052580044F0BAF839684AEA000A08F10108090A6C
:105268008BF8001039688BF801100BF1020B04372A
:10527800DEE74FF47F400BF10603ABF8000008F1BE
:105288000100C109400086F82800012086F827108F
:10529800ABF80200216891F87500032827D1D4F8EB
:1052A800A0008D6D002100F5805055F81120C2B185
:1052B8000231FAE706207BE0A87A40F002000728CE
:1052C80003D10120C4F8880070E0204602210A2298
:1052D8003EF0C6F906F59067AAE50120C4F88800F3
:1052E80067E0984203D3C01A0631884263D24FF070
:1052F8000008BAF1000F00F0C2802068D4F8A010AE
:1053080003EB080506270693D0F85CA001F5805644
:105318009AF8000040B144F0B7FF002800F09880E8
:1053280002370AF1010AF3E7AE42C0F09180701B20
:105338000595B842C0F08C8020680BEB080A062758
:10534800C56D2878002875D00AEB070644F09CFF45
:10535800C17802370135B1718078F071F1E7D4F87E
:10536800A010020A0A71D4F8A01048712068D4F875
:10537800A030D0E91A12981D47F072FE2168AA7A67
:10538800C86E861D082A39D0052A7FF451AD002041
:105398000521079046E006F5B06749E506F5786708
:1053A80046E512F0A00F5F463FF442AD6068013059
:1053B800606000273CE500264FF00308069355F887
:1053C800160040B10BEB060746F0DBFC87F80D80B2
:1053D80038730236F3E74FF45060069B06F106086F
:1053E8008BF80B60ABF80600300A8BF80A00B01C8B
:1053F8008BF80900000A8BF808007AE7D1E9063132
:10540800D4F8A020A76BCDE9003140F6FA713244F8
:105418000B1A381D07A936F0C3F8074600287FF491
:1054280007ADA97A204621F0ADFF074600287FF492
:10543800FFAC26E6B81F0BD0059A4FF420615071D7
:10544800000A11801071381FD070000A907000E0B7
:105458000027D4F8A020069B07EB0800191802F5CE
:1054680080528A4202D3521A062A01D2002104E04D
:1054780001228A80E24A0A60062101EB00082068BE
:10548800B0F8780010F4E07F0AD0D4F8A01003EB4D
:10549800080001F58051814202D3091A05291DD25D
:1054A800002010EB080005D001BA1844090CABF82D
:1054B800041001E00BF104001621A0EB0900C4E977
:1054C8002910D4F8A00001210170606801306060E3
:1054D800204619B0BDE8F04F2FF092BA4FF00121E5
:1054E80001602168B1F87810C1F3821101710520BB
:1054F800D7E7A06B0779384644F0C6FE00283FF48A
:105508001FAD2046394643F043FF00287FF418AD0D
:10551800A87A053810F1030FFFF448AFE0685F463A
:1055280003287FF485ACDDF8609006F1800709F167
:105538000200504500F29380E06E069099F8000052
:1055480046F0DAF9002800F08A80804618984078FA
:1055580046F0D0FE0028059000F0818020464146A4
:1055680043F024FF00287AD1189802301890284672
:1055780044F0DEFE0599814271D11898AAF1020122
:10558800884200F2208130F8021B090418900DBAF5
:10559800AAEB0501884240F016810698031DA9EB85
:1055A8000300CDE9000807A917AA20462BF042FB03
:1055B800074600287FF43CAC606B406EC8B100F130
:1055C800CC070599384646F087F9002800F0138182
:1055D800DDE91730002102914146CDE9000507AA0F
:1055E800384635F0EBFA00283FF4E0AE07463322A0
:1055F800EAE05F46FFF71CBCA06B0AF10601202217
:1056080000F5F67047F02CFD9AF826B0BBF1200F94
:1056180000F2D980D4F880000BF12B01884210D910
:105628000BEB0801C98C090491FA81F9A9F1010170
:105638000329C0F0C8800BEB09012C31884207D040
:10564800C1E00BF12A01884240F0BD804FF000090B
:105658000BEB080090F8251019B106F530672F22DA
:10566800B2E0B0F82300000406BA304644F054FE15
:10567800A16BC1F8C401A06BD0F8C411002900F0D7
:10568800A980204645F0FAFBD4F838C0DCF850125F
:1056980011B3BBF1000F1FD0626B9168B1421BD1EF
:1056A800D168C9B91169594516D10AF127011432CF
:1056B8005B460D781078A8420ED1013B02F1010239
:1056C80001F10101F5D10C20606020461FF0A0FA1D
:1056D800D8B15022074677E0606800250130606045
:1056E800CCF8505247F07CFB626BC2E900010AF12A
:1056F80027015A46606B8660606BC560606BC0F8B6
:1057080010B0606B143047F0ABFC2068E16850F8CB
:10571800211008680028A2D0626B04319268904278
:10572800F7D144F0F9FDE2682146134640F07EFCCB
:10573800002894D1606B00214FF0010CC1600AEB86
:105748000B004FF601712C30B9F1000F45D042889B
:10575800120416BA351DA94535D3028812BA120C9F
:10576800012A0BD00B2A16D08A4223D1012E44D10C
:105778000279002A41D1C4F8C0C01BE02822012EBA
:1057880022D12368B3F87830C3F38213E3B10279E6
:1057980093420FD031E0B6B10279531CB34212D113
:1057A800461D52B316F8013B013A012BF9D8A26BFA
:1057B800C2F8E030A9EB05092844A9F10102032A3F
:1057C800C2D2FFF735BB3222204602213DF048FF06
:1057D800FFF72EBB50222F46F6E7D4F8C00000286A
:1057E8007FF4E7AD2068B0F8780000F0300020289A
:1057F8007FF4DFAD01E006F568672822E4E700BF23
:10580800000B00022DE9F04FADF5077DD0F80090B0
:1058180006469B4615468691484646F053FB4FF090
:10582800000A09EB00084FF0FF310027CDF814A259
:10583800C14580F0C38009F101048DF810A283915D
:10584800CDE981AA204610F8011D002900F0B68094
:10585800252908D001302946306014F8010CD847B2
:1058680001340137EEE73460859781AC3146204634
:1058780000F0A9F82046314686AA00F0C0F8306842
:105888000178A1F168024FEA7202092A30D8DFE8EC
:1058980002F0050E122F2F2F1D2F2F210146819A5E
:1058A80011F8013F682B1BD142F400710BE081997C
:1058B80041F4006111E00146819A11F8013F6C2B17
:1058C80011D142F480718191023010E0819941F444
:1058D800005102E0819941F480510130819106E044
:1058E80042F0200001E042F0400081900846017833
:1058F80000F1010973298DF81012C6F800901FD025
:105908006E292AD1819843F66071084020284BD02F
:10591800402834D0B0F5005F31D0B0F5007F47D0D3
:10592800B0F5006F05D0B0F5805F28D0B0F5807F66
:1059380025D18698FA1750F8041BC1E9007222E0B5
:105948009DF80402400620D4CDF800B081A886AAAC
:10595800294685AB00F01AF91FE00DF1060481A96C
:1059680086AA204600F066F9909B02462046294602
:105978009847411C18BF3844859007460EE0869822
:1059880050F8041B0F60869007E0CDF800B081A89E
:1059980086AA294685AB00F092F8859F4FF0FF3123
:1059A800781C7FF445AF07E0869802C80F80EAE7C5
:1059B800869802C80F70E6E74FF0FF3738460DF5B6
:1059C800077DBDE8F08F0A681378202B0AD0232BB7
:1059D8000AD0302B0AD02D2B0AD02B2B18BF70479A
:1059E800022306E0042304E0082302E0102300E079
:1059F800012301320A6002681A430260E3E7FEB538
:105A08000446086816460D4602782A2A11D13068DD
:105A1800011D31600068B0F1FF3F606005DC404265
:105A28006060206840F0010020602868471C2F60F3
:105A380018E001300DF10201303A092A07D8286030
:105A480010F8013C0278013001F8013BF4E700222C
:105A5800471E0A709DF8020020B10DF1020037F0D0
:105A6800B3FB606038782E2828D1781C28607A78B3
:105A78002A2A08D13068011D31600068A0602868B2
:105A880001302860FEBDB91C0DF10200303A092A28
:105A980008D829604B1C11F8012C00F8012B0A7852
:105AA8001946F3E7002101709DF8020028B10DF1B5
:105AB800020037F089FBA060FEBDA160FEBD2DE9A4
:105AC800FE4F054610680C46011D116007680C9AC8
:105AD800E7B3AE6898469146002E04D4384645F0A0
